{
  "contractName": "GreenEnergyToken",
  "abi": [
    {
      "inputs": [],
      "stateMutability": "nonpayable",
      "type": "constructor"
    },
    {
      "anonymous": false,
      "inputs": [
        {
          "indexed": true,
          "internalType": "address",
          "name": "owner",
          "type": "address"
        },
        {
          "indexed": true,
          "internalType": "address",
          "name": "spender",
          "type": "address"
        },
        {
          "indexed": false,
          "internalType": "uint256",
          "name": "value",
          "type": "uint256"
        }
      ],
      "name": "Approval",
      "type": "event"
    },
    {
      "anonymous": false,
      "inputs": [
        {
          "indexed": true,
          "internalType": "address",
          "name": "to",
          "type": "address"
        },
        {
          "indexed": true,
          "internalType": "uint256",
          "name": "footPrint",
          "type": "uint256"
        },
        {
          "indexed": true,
          "internalType": "uint256",
          "name": "amount",
          "type": "uint256"
        }
      ],
      "name": "Buy",
      "type": "event"
    },
    {
      "anonymous": false,
      "inputs": [
        {
          "indexed": true,
          "internalType": "address",
          "name": "to",
          "type": "address"
        },
        {
          "indexed": true,
          "internalType": "uint256",
          "name": "footPrint",
          "type": "uint256"
        },
        {
          "indexed": true,
          "internalType": "uint256",
          "name": "amount",
          "type": "uint256"
        }
      ],
      "name": "Compensate",
      "type": "event"
    },
    {
      "anonymous": false,
      "inputs": [
        {
          "indexed": true,
          "internalType": "address",
          "name": "from",
          "type": "address"
        },
        {
          "indexed": true,
          "internalType": "address",
          "name": "to",
          "type": "address"
        },
        {
          "indexed": false,
          "internalType": "uint256",
          "name": "value",
          "type": "uint256"
        }
      ],
      "name": "Transfer",
      "type": "event"
    },
    {
      "inputs": [
        {
          "internalType": "address",
          "name": "owner",
          "type": "address"
        },
        {
          "internalType": "address",
          "name": "spender",
          "type": "address"
        }
      ],
      "name": "allowance",
      "outputs": [
        {
          "internalType": "uint256",
          "name": "",
          "type": "uint256"
        }
      ],
      "stateMutability": "view",
      "type": "function",
      "constant": true
    },
    {
      "inputs": [
        {
          "internalType": "address",
          "name": "spender",
          "type": "address"
        },
        {
          "internalType": "uint256",
          "name": "amount",
          "type": "uint256"
        }
      ],
      "name": "approve",
      "outputs": [
        {
          "internalType": "bool",
          "name": "",
          "type": "bool"
        }
      ],
      "stateMutability": "nonpayable",
      "type": "function"
    },
    {
      "inputs": [
        {
          "internalType": "address",
          "name": "account",
          "type": "address"
        }
      ],
      "name": "balanceOf",
      "outputs": [
        {
          "internalType": "uint256",
          "name": "",
          "type": "uint256"
        }
      ],
      "stateMutability": "view",
      "type": "function",
      "constant": true
    },
    {
      "inputs": [],
      "name": "decimals",
      "outputs": [
        {
          "internalType": "uint8",
          "name": "",
          "type": "uint8"
        }
      ],
      "stateMutability": "view",
      "type": "function",
      "constant": true
    },
    {
      "inputs": [],
      "name": "name",
      "outputs": [
        {
          "internalType": "string",
          "name": "",
          "type": "string"
        }
      ],
      "stateMutability": "view",
      "type": "function",
      "constant": true
    },
    {
      "inputs": [],
      "name": "owner",
      "outputs": [
        {
          "internalType": "address",
          "name": "",
          "type": "address"
        }
      ],
      "stateMutability": "view",
      "type": "function",
      "constant": true
    },
    {
      "inputs": [],
      "name": "symbol",
      "outputs": [
        {
          "internalType": "string",
          "name": "",
          "type": "string"
        }
      ],
      "stateMutability": "view",
      "type": "function",
      "constant": true
    },
    {
      "inputs": [],
      "name": "totalSupply",
      "outputs": [
        {
          "internalType": "uint256",
          "name": "",
          "type": "uint256"
        }
      ],
      "stateMutability": "view",
      "type": "function",
      "constant": true
    },
    {
      "inputs": [
        {
          "internalType": "address",
          "name": "recipient",
          "type": "address"
        },
        {
          "internalType": "uint256",
          "name": "amount",
          "type": "uint256"
        }
      ],
      "name": "transfer",
      "outputs": [
        {
          "internalType": "bool",
          "name": "",
          "type": "bool"
        }
      ],
      "stateMutability": "nonpayable",
      "type": "function"
    },
    {
      "inputs": [
        {
          "internalType": "address",
          "name": "sender",
          "type": "address"
        },
        {
          "internalType": "address",
          "name": "recipient",
          "type": "address"
        },
        {
          "internalType": "uint256",
          "name": "amount",
          "type": "uint256"
        }
      ],
      "name": "transferFrom",
      "outputs": [
        {
          "internalType": "bool",
          "name": "",
          "type": "bool"
        }
      ],
      "stateMutability": "nonpayable",
      "type": "function"
    },
    {
      "inputs": [
        {
          "internalType": "uint256",
          "name": "amount",
          "type": "uint256"
        }
      ],
      "name": "mint",
      "outputs": [],
      "stateMutability": "nonpayable",
      "type": "function"
    },
    {
      "inputs": [
        {
          "internalType": "address",
          "name": "company",
          "type": "address"
        },
        {
          "internalType": "uint256",
          "name": "footprint",
          "type": "uint256"
        }
      ],
      "name": "addFootprint",
      "outputs": [],
      "stateMutability": "nonpayable",
      "type": "function"
    },
    {
      "inputs": [
        {
          "internalType": "address",
          "name": "company",
          "type": "address"
        }
      ],
      "name": "getFootPrint",
      "outputs": [
        {
          "internalType": "uint256",
          "name": "",
          "type": "uint256"
        }
      ],
      "stateMutability": "view",
      "type": "function",
      "constant": true
    },
    {
      "inputs": [
        {
          "internalType": "uint256",
          "name": "amount",
          "type": "uint256"
        }
      ],
      "name": "buy",
      "outputs": [],
      "stateMutability": "payable",
      "type": "function",
      "payable": true
    },
    {
      "inputs": [
        {
          "internalType": "address",
          "name": "company",
          "type": "address"
        }
      ],
      "name": "getIOT",
      "outputs": [
        {
          "internalType": "address",
          "name": "",
          "type": "address"
        }
      ],
      "stateMutability": "view",
      "type": "function",
      "constant": true
    },
    {
      "inputs": [
        {
          "internalType": "uint256",
          "name": "amount",
          "type": "uint256"
        }
      ],
      "name": "compensate",
      "outputs": [],
      "stateMutability": "nonpayable",
      "type": "function"
    },
    {
      "inputs": [
        {
          "internalType": "address",
          "name": "spender",
          "type": "address"
        }
      ],
      "name": "approveIot",
      "outputs": [],
      "stateMutability": "nonpayable",
      "type": "function"
    },
    {
      "inputs": [
        {
          "internalType": "address",
          "name": "newOwner",
          "type": "address"
        }
      ],
      "name": "changeOwner",
      "outputs": [
        {
          "internalType": "bool",
          "name": "",
          "type": "bool"
        }
      ],
      "stateMutability": "nonpayable",
      "type": "function"
    }
  ],
  "bytecode": "0x60806040523480156200001157600080fd5b506040518060400160405280601281526020017f477265656e20456e6572677920546f6b656e00000000000000000000000000008152506040518060400160405280600381526020017f474554000000000000000000000000000000000000000000000000000000000081525068056bc75e2d631000008260039080519060200190620000a09291906200021f565b508160049080519060200190620000b99291906200021f565b506012600560006101000a81548160ff021916908360ff16021790555080600281905550806000803073ffffffffffffffffffffffffffffffffffffffff1673ffffffffffffffffffffffffffffffffffffffff16815260200190815260200160002054620001299190620002fd565b6000803073ffffffffffffffffffffffffffffffffffffffff1673ffffffffffffffffffffffffffffffffffffffff168152602001908152602001600020819055503373ffffffffffffffffffffffffffffffffffffffff16600073ffffffffffffffffffffffffffffffffffffffff167fddf252ad1be2c89b69c2b068fc378daa952ba7f163c4a11628f55a4df523b3ef600254604051620001cd9190620002e0565b60405180910390a350505033600860006101000a81548173ffffffffffffffffffffffffffffffffffffffff021916908373ffffffffffffffffffffffffffffffffffffffff160217905550620003f8565b8280546200022d9062000364565b90600052602060002090601f0160209004810192826200025157600085556200029d565b82601f106200026c57805160ff19168380011785556200029d565b828001600101855582156200029d579182015b828111156200029c5782518255916020019190600101906200027f565b5b509050620002ac9190620002b0565b5090565b5b80821115620002cb576000816000905550600101620002b1565b5090565b620002da816200035a565b82525050565b6000602082019050620002f76000830184620002cf565b92915050565b60006200030a826200035a565b915062000317836200035a565b9250827fffffffffffffffffffffffffffffffffffffffffffffffffffffffffffffffff038211156200034f576200034e6200039a565b5b828201905092915050565b6000819050919050565b600060028204905060018216806200037d57607f821691505b60208210811415620003945762000393620003c9565b5b50919050565b7f4e487b7100000000000000000000000000000000000000000000000000000000600052601160045260246000fd5b7f4e487b7100000000000000000000000000000000000000000000000000000000600052602260045260246000fd5b611a1080620004086000396000f3fe6080604052600436106101095760003560e01c806395d89b4111610095578063aeb066a011610064578063aeb066a014610391578063bdd03573146103ce578063d96a094a1461040b578063dd62ed3e14610427578063f46c0f291461046457610109565b806395d89b41146102c3578063a0712d68146102ee578063a6f9dae114610317578063a9059cbb1461035457610109565b8063313ce567116100dc578063313ce567146101de5780634c07f58b14610209578063651c54b01461023257806370a082311461025b5780638da5cb5b1461029857610109565b806306fdde031461010e578063095ea7b31461013957806318160ddd1461017657806323b872dd146101a1575b600080fd5b34801561011a57600080fd5b5061012361048d565b6040516101309190611705565b60405180910390f35b34801561014557600080fd5b50610160600480360381019061015b9190611483565b61051f565b60405161016d91906116ea565b60405180910390f35b34801561018257600080fd5b5061018b610536565b60405161019891906117a7565b60405180910390f35b3480156101ad57600080fd5b506101c860048036038101906101c39190611434565b610540565b6040516101d591906116ea565b60405180910390f35b3480156101ea57600080fd5b506101f36105ea565b60405161020091906117c2565b60405180910390f35b34801561021557600080fd5b50610230600480360381019061022b91906113cf565b610601565b005b34801561023e57600080fd5b5061025960048036038101906102549190611483565b6106a0565b005b34801561026757600080fd5b50610282600480360381019061027d91906113cf565b610793565b60405161028f91906117a7565b60405180910390f35b3480156102a457600080fd5b506102ad6107db565b6040516102ba91906116cf565b60405180910390f35b3480156102cf57600080fd5b506102d8610801565b6040516102e59190611705565b60405180910390f35b3480156102fa57600080fd5b50610315600480360381019061031091906114bf565b610893565b005b34801561032357600080fd5b5061033e600480360381019061033991906113cf565b6108fa565b60405161034b91906116ea565b60405180910390f35b34801561036057600080fd5b5061037b60048036038101906103769190611483565b6109a0565b60405161038891906116ea565b60405180910390f35b34801561039d57600080fd5b506103b860048036038101906103b391906113cf565b6109b7565b6040516103c591906116cf565b60405180910390f35b3480156103da57600080fd5b506103f560048036038101906103f091906113cf565b610a20565b60405161040291906117a7565b60405180910390f35b610425600480360381019061042091906114bf565b610a69565b005b34801561043357600080fd5b5061044e600480360381019061044991906113f8565b610b07565b60405161045b91906117a7565b60405180910390f35b34801561047057600080fd5b5061048b600480360381019061048691906114bf565b610b8e565b005b60606003805461049c9061190b565b80601f01602080910402602001604051908101604052809291908181526020018280546104c89061190b565b80156105155780601f106104ea57610100808354040283529160200191610515565b820191906000526020600020905b8154815290600101906020018083116104f857829003601f168201915b5050505050905090565b600061052c338484610c4b565b6001905092915050565b6000600254905090565b600061054d848484610e16565b6105df843384600160008973ffffffffffffffffffffffffffffffffffffffff1673ffffffffffffffffffffffffffffffffffffffff16815260200190815260200160002060003373ffffffffffffffffffffffffffffffffffffffff1673ffffffffffffffffffffffffffffffffffffffff168152602001908152602001600020546105da919061184f565b610c4b565b600190509392505050565b6000600560009054906101000a900460ff16905090565b60006106158261061033610a20565b61051f565b9050801561069c5781600760003373ffffffffffffffffffffffffffffffffffffffff1673ffffffffffffffffffffffffffffffffffffffff16815260200190815260200160002060006101000a81548173ffffffffffffffffffffffffffffffffffffffff021916908373ffffffffffffffffffffffffffffffffffffffff1602179055505b5050565b81600760008273ffffffffffffffffffffffffffffffffffffffff1673ffffffffffffffffffffffffffffffffffffffff16815260200190815260200160002060009054906101000a900473ffffffffffffffffffffffffffffffffffffffff1673ffffffffffffffffffffffffffffffffffffffff163373ffffffffffffffffffffffffffffffffffffffff161461073857600080fd5b81600660008573ffffffffffffffffffffffffffffffffffffffff1673ffffffffffffffffffffffffffffffffffffffff168152602001908152602001600020600082825461078791906117f9565b92505081905550505050565b60008060008373ffffffffffffffffffffffffffffffffffffffff1673ffffffffffffffffffffffffffffffffffffffff168152602001908152602001600020549050919050565b600860009054906101000a900473ffffffffffffffffffffffffffffffffffffffff1681565b6060600480546108109061190b565b80601f016020809104026020016040519081016040528092919081815260200182805461083c9061190b565b80156108895780601f1061085e57610100808354040283529160200191610889565b820191906000526020600020905b81548152906001019060200180831161086c57829003601f168201915b5050505050905090565b600860009054906101000a900473ffffffffffffffffffffffffffffffffffffffff1673ffffffffffffffffffffffffffffffffffffffff163373ffffffffffffffffffffffffffffffffffffffff16146108ed57600080fd5b6108f73082611078565b50565b60003373ffffffffffffffffffffffffffffffffffffffff16600860009054906101000a900473ffffffffffffffffffffffffffffffffffffffff1673ffffffffffffffffffffffffffffffffffffffff161461095657600080fd5b81600860006101000a81548173ffffffffffffffffffffffffffffffffffffffff021916908373ffffffffffffffffffffffffffffffffffffffff16021790555060019050919050565b60006109ad338484610e16565b6001905092915050565b6000600760008373ffffffffffffffffffffffffffffffffffffffff1673ffffffffffffffffffffffffffffffffffffffff16815260200190815260200160002060009054906101000a900473ffffffffffffffffffffffffffffffffffffffff169050919050565b6000600660008373ffffffffffffffffffffffffffffffffffffffff1673ffffffffffffffffffffffffffffffffffffffff168152602001908152602001600020549050919050565b803414610a7557600080fd5b610a80303383610e16565b80600660003373ffffffffffffffffffffffffffffffffffffffff1673ffffffffffffffffffffffffffffffffffffffff168152602001908152602001600020543373ffffffffffffffffffffffffffffffffffffffff167f1cbc5ab135991bd2b6a4b034a04aa2aa086dac1371cb9b16b8b5e2ed6b036bed60405160405180910390a450565b6000600160008473ffffffffffffffffffffffffffffffffffffffff1673ffffffffffffffffffffffffffffffffffffffff16815260200190815260200160002060008373ffffffffffffffffffffffffffffffffffffffff1673ffffffffffffffffffffffffffffffffffffffff16815260200190815260200160002054905092915050565b80610b9833610793565b1015610ba357600080fd5b610bad33826111cc565b80600660003373ffffffffffffffffffffffffffffffffffffffff1673ffffffffffffffffffffffffffffffffffffffff1681526020019081526020016000206000828254610bfc919061184f565b9250508190555080813373ffffffffffffffffffffffffffffffffffffffff167f0a4421f2ef32f0aca569f26b96b84995d89eb00874f3c73d9b53a1d5bf96f1c860405160405180910390a450565b600073ffffffffffffffffffffffffffffffffffffffff168273ffffffffffffffffffffffffffffffffffffffff161415610cbb576040517f08c379a0000000000000000000000000000000000000000000000000000000008152600401610cb290611767565b60405180910390fd5b600073ffffffffffffffffffffffffffffffffffffffff168373ffffffffffffffffffffffffffffffffffffffff161415610d2b576040517f08c379a0000000000000000000000000000000000000000000000000000000008152600401610d2290611767565b60405180910390fd5b80600160008573ffffffffffffffffffffffffffffffffffffffff1673ffffffffffffffffffffffffffffffffffffffff16815260200190815260200160002060008473ffffffffffffffffffffffffffffffffffffffff1673ffffffffffffffffffffffffffffffffffffffff168152602001908152602001600020819055508173ffffffffffffffffffffffffffffffffffffffff168373ffffffffffffffffffffffffffffffffffffffff167f8c5be1e5ebec7d5bd14f71427d1e84f3dd0314c0f7b2291e5b200ac8c7c3b92583604051610e0991906117a7565b60405180910390a3505050565b600073ffffffffffffffffffffffffffffffffffffffff168273ffffffffffffffffffffffffffffffffffffffff161415610e86576040517f08c379a0000000000000000000000000000000000000000000000000000000008152600401610e7d90611767565b60405180910390fd5b600073ffffffffffffffffffffffffffffffffffffffff168373ffffffffffffffffffffffffffffffffffffffff161415610ef6576040517f08c379a0000000000000000000000000000000000000000000000000000000008152600401610eed90611767565b60405180910390fd5b806000808573ffffffffffffffffffffffffffffffffffffffff1673ffffffffffffffffffffffffffffffffffffffff16815260200190815260200160002054610f40919061184f565b6000808573ffffffffffffffffffffffffffffffffffffffff1673ffffffffffffffffffffffffffffffffffffffff16815260200190815260200160002081905550806000808473ffffffffffffffffffffffffffffffffffffffff1673ffffffffffffffffffffffffffffffffffffffff16815260200190815260200160002054610fcc91906117f9565b6000808473ffffffffffffffffffffffffffffffffffffffff1673ffffffffffffffffffffffffffffffffffffffff168152602001908152602001600020819055508173ffffffffffffffffffffffffffffffffffffffff168373ffffffffffffffffffffffffffffffffffffffff167fddf252ad1be2c89b69c2b068fc378daa952ba7f163c4a11628f55a4df523b3ef8360405161106b91906117a7565b60405180910390a3505050565b600073ffffffffffffffffffffffffffffffffffffffff168273ffffffffffffffffffffffffffffffffffffffff1614156110e8576040517f08c379a00000000000000000000000000000000000000000000000000000000081526004016110df90611787565b60405180910390fd5b6110f4600083836113a0565b806002600082825461110691906117f9565b92505081905550806000808473ffffffffffffffffffffffffffffffffffffffff1673ffffffffffffffffffffffffffffffffffffffff168152602001908152602001600020600082825461115b91906117f9565b925050819055508173ffffffffffffffffffffffffffffffffffffffff16600073ffffffffffffffffffffffffffffffffffffffff167fddf252ad1be2c89b69c2b068fc378daa952ba7f163c4a11628f55a4df523b3ef836040516111c091906117a7565b60405180910390a35050565b600073ffffffffffffffffffffffffffffffffffffffff168273ffffffffffffffffffffffffffffffffffffffff16141561123c576040517f08c379a000000000000000000000000000000000000000000000000000000000815260040161123390611747565b60405180910390fd5b611248826000836113a0565b60008060008473ffffffffffffffffffffffffffffffffffffffff1673ffffffffffffffffffffffffffffffffffffffff168152602001908152602001600020549050818110156112ce576040517f08c379a00000000000000000000000000000000000000000000000000000000081526004016112c590611727565b60405180910390fd5b81816112da919061184f565b6000808573ffffffffffffffffffffffffffffffffffffffff1673ffffffffffffffffffffffffffffffffffffffff16815260200190815260200160002081905550816002600082825461132e919061184f565b92505081905550600073ffffffffffffffffffffffffffffffffffffffff168373ffffffffffffffffffffffffffffffffffffffff167fddf252ad1be2c89b69c2b068fc378daa952ba7f163c4a11628f55a4df523b3ef8460405161139391906117a7565b60405180910390a3505050565b505050565b6000813590506113b4816119ac565b92915050565b6000813590506113c9816119c3565b92915050565b6000602082840312156113e157600080fd5b60006113ef848285016113a5565b91505092915050565b6000806040838503121561140b57600080fd5b6000611419858286016113a5565b925050602061142a858286016113a5565b9150509250929050565b60008060006060848603121561144957600080fd5b6000611457868287016113a5565b9350506020611468868287016113a5565b9250506040611479868287016113ba565b9150509250925092565b6000806040838503121561149657600080fd5b60006114a4858286016113a5565b92505060206114b5858286016113ba565b9150509250929050565b6000602082840312156114d157600080fd5b60006114df848285016113ba565b91505092915050565b6114f181611883565b82525050565b61150081611895565b82525050565b6000611511826117dd565b61151b81856117e8565b935061152b8185602086016118d8565b6115348161199b565b840191505092915050565b600061154c6022836117e8565b91507f45524332303a206275726e20616d6f756e7420657863656564732062616c616e60008301527f63650000000000000000000000000000000000000000000000000000000000006020830152604082019050919050565b60006115b26021836117e8565b91507f45524332303a206275726e2066726f6d20746865207a65726f2061646472657360008301527f73000000000000000000000000000000000000000000000000000000000000006020830152604082019050919050565b60006116186022836117e8565b91507f45524332303a207472616e736665722066726f6d207a65726f207472616e736660008301527f65720000000000000000000000000000000000000000000000000000000000006020830152604082019050919050565b600061167e601f836117e8565b91507f45524332303a206d696e7420746f20746865207a65726f2061646472657373006000830152602082019050919050565b6116ba816118c1565b82525050565b6116c9816118cb565b82525050565b60006020820190506116e460008301846114e8565b92915050565b60006020820190506116ff60008301846114f7565b92915050565b6000602082019050818103600083015261171f8184611506565b905092915050565b600060208201905081810360008301526117408161153f565b9050919050565b60006020820190508181036000830152611760816115a5565b9050919050565b600060208201905081810360008301526117808161160b565b9050919050565b600060208201905081810360008301526117a081611671565b9050919050565b60006020820190506117bc60008301846116b1565b92915050565b60006020820190506117d760008301846116c0565b92915050565b600081519050919050565b600082825260208201905092915050565b6000611804826118c1565b915061180f836118c1565b9250827fffffffffffffffffffffffffffffffffffffffffffffffffffffffffffffffff038211156118445761184361193d565b5b828201905092915050565b600061185a826118c1565b9150611865836118c1565b9250828210156118785761187761193d565b5b828203905092915050565b600061188e826118a1565b9050919050565b60008115159050919050565b600073ffffffffffffffffffffffffffffffffffffffff82169050919050565b6000819050919050565b600060ff82169050919050565b60005b838110156118f65780820151818401526020810190506118db565b83811115611905576000848401525b50505050565b6000600282049050600182168061192357607f821691505b602082108114156119375761193661196c565b5b50919050565b7f4e487b7100000000000000000000000000000000000000000000000000000000600052601160045260246000fd5b7f4e487b7100000000000000000000000000000000000000000000000000000000600052602260045260246000fd5b6000601f19601f8301169050919050565b6119b581611883565b81146119c057600080fd5b50565b6119cc816118c1565b81146119d757600080fd5b5056fea2646970667358221220f7315f4a8eeebe5b44044bd938095370f51ce308d542570eb4e104034a40f88f64736f6c63430008000033",
  "immutableReferences": {},
  "source": "// SPDX-License-Identifier: MIT\npragma solidity ^0.8.0;\n\nimport \"./StandardERC20.sol\";\n\n/// @title Green Energy Token Contract\n/// @author BlockExplorers\n/// @notice This token is used in tokenize the energy assest from green energy producer\n/// @dev Implements the ERC20 Contract\ncontract GreenEnergyToken is StandardERC20{\n\n    // State variable to track the company's footprint\n    mapping(address => uint) footprintGenerated;\n    \n    // State variable to track the company's iot address\n    mapping(address=>address) approvedIot;\n    \n    // Address of the contract owner\n    address public owner;\n    \n    /// @notice Constructor of contract\n    /// @dev used to initilaze the Token metadata and Inital supply\n    constructor() StandardERC20(\"Green Energy Token\", \"GET\", 100000000000000000000){\n        owner = msg.sender;\n    }\n\n    /// @notice Modifier used to restrict the permission to the owner of the contract.\n    /// @dev restricts the funtionality to owner\n    modifier onlyOwner(){\n        require(msg.sender == owner);\n        _;\n    }\n    \n    /// @notice Modifier used to restrict the permission to the owner of the contract.\n    /// @dev restricts the functionality to IOT address\n    /// @param company address of the buyer\n    modifier onlyIOT(address company){\n        require(msg.sender == approvedIot[company]);\n        _;\n    }\n\n    /// @notice To generate Event for Buy Action\n    /// @dev Buy Event defiinition\n    /// @param to address of the buyer\n    /// @param amount amount of tokens requested to be bought\n    event Buy(address indexed to, uint indexed footPrint, uint indexed amount);\n\n    /// @notice To generate Event for Compensate Action\n    /// @dev Compensate Event defiinition\n    /// @param to address of the Token holder(company)\n    /// @param amount amount of tokens requested to be compensated\n    event Compensate(address indexed to, uint indexed footPrint, uint indexed amount);\n\n    /// @notice Create new tokens and store it in smart contract\n    /// @dev calls the _mint function from standard ERC20\n    /// @param amount specifies the amount of token to be newly minted\n    function mint(uint amount) public onlyOwner{\n        _mint(address(this), amount);\n    }\n\n    /// @notice Function to add the footprint generated by company to the contract state\n    /// @param company address of the company \n    /// @param footprint units of footprint generated by the company \n    function addFootprint(address company,uint footprint) public onlyIOT(company){\n        footprintGenerated[company] += footprint;\n    }\n    \n    /// @notice Obtain the total footprint of the company\n    /// @dev utility function to access the state of the company\n    /// @param company address of the company\n    /// @return returns the total units of footprint generated by the company\n    function getFootPrint(address company) public view returns(uint){\n        return footprintGenerated[company];\n    }\n\n    /// @notice Facilitate the user to buy tokens\n    /// @dev uses StandardERC20 _transfer function\n    /// @param amount amount of tokens to be bought by the user\n    function buy(uint amount)public payable{\n        require(msg.value == amount);\n        _transfer(address(this), msg.sender,amount);\n        emit Buy(msg.sender,footprintGenerated[msg.sender],amount);\n    }\n\n    /// @notice Retrieve the address of the IOT Device of a company\n    /// @dev Returns the address of the IOT dec\n    /// @param company address of the company\n    /// @return address of the IOT device approved by the company\n    function getIOT(address company) public view returns(address){\n        return approvedIot[company];\n    }\n\n    /// @notice Facilitate the user to compensate for the generated footprints\n    /// @dev burns the specified amount of tokens\n    /// @param amount amount of tokens the company wants to compensate\n    function compensate(uint amount) public{        \n        require(balanceOf(msg.sender)>= amount);\n        _burn(msg.sender,amount);\n        footprintGenerated[msg.sender] -=amount;\n        emit Compensate(msg.sender,amount, amount);\n    }\n\n    /// @notice Approve an IOT device for the company\n    /// @dev Should be executed before adding footprint\n    /// @param spender address of the IOT device\n    function approveIot(address spender) public{\n        bool isApproved = approve(spender,getFootPrint(msg.sender));\n        if(isApproved)\n            approvedIot[msg.sender]=spender;\n    }\n    \n    /// @notice Change the ownership of contract\n    /// @dev Function to change the owner of the contract\n    /// @param newOwner address of the new owner\n    function changeOwner(address newOwner) public returns(bool){\n        require(owner == msg.sender);\n        owner = newOwner;\n        return true;\n    }\n}",
  "sourcePath": "D:\\Bluechip Technologies Asia\\Task_2\\green-energy-tracker-main\\smart-contracts\\contracts\\GreenEnergyToken.sol",
  "compiler": {
    "name": "solc",
    "version": "0.8.0+commit.c7dfd78e.Emscripten.clang"
  },
  "schemaVersion": "3.4.13",
  "updatedAt": "2023-04-25T04:59:48.124Z",
  "networkType": "ethereum",
  "devdoc": {
    "author": "BlockExplorers",
    "details": "Implements the ERC20 Contract",
    "events": {
      "Buy(address,uint256,uint256)": {
        "details": "Buy Event defiinition",
        "params": {
          "amount": "amount of tokens requested to be bought",
          "to": "address of the buyer"
        }
      },
      "Compensate(address,uint256,uint256)": {
        "details": "Compensate Event defiinition",
        "params": {
          "amount": "amount of tokens requested to be compensated",
          "to": "address of the Token holder(company)"
        }
      }
    },
    "kind": "dev",
    "methods": {
      "addFootprint(address,uint256)": {
        "params": {
          "company": "address of the company ",
          "footprint": "units of footprint generated by the company "
        }
      },
      "allowance(address,address)": {
        "details": "gets the allowances of the approved acccount",
        "params": {
          "owner": "address of the owner",
          "spender": "address of the spender"
        },
        "returns": {
          "_0": "the amount of tokens approved for the spender"
        }
      },
      "approve(address,uint256)": {
        "details": "Function to approve another account to transfer from the callers account",
        "params": {
          "amount": "amount of tokens to be approved to the spender",
          "spender": "address of the spender"
        },
        "returns": {
          "_0": "boolean status of approval; true if transfer succeeds and false if not"
        }
      },
      "approveIot(address)": {
        "details": "Should be executed before adding footprint",
        "params": {
          "spender": "address of the IOT device"
        }
      },
      "balanceOf(address)": {
        "details": "returns the balance amount of the token holder",
        "params": {
          "account": "address of the account"
        },
        "returns": {
          "_0": "balance amount in an account"
        }
      },
      "buy(uint256)": {
        "details": "uses StandardERC20 _transfer function",
        "params": {
          "amount": "amount of tokens to be bought by the user"
        }
      },
      "changeOwner(address)": {
        "details": "Function to change the owner of the contract",
        "params": {
          "newOwner": "address of the new owner"
        }
      },
      "compensate(uint256)": {
        "details": "burns the specified amount of tokens",
        "params": {
          "amount": "amount of tokens the company wants to compensate"
        }
      },
      "constructor": {
        "details": "used to initilaze the Token metadata and Inital supply"
      },
      "decimals()": {
        "details": "returns the decimals of the token",
        "returns": {
          "_0": "decimals of the Token"
        }
      },
      "getFootPrint(address)": {
        "details": "utility function to access the state of the company",
        "params": {
          "company": "address of the company"
        },
        "returns": {
          "_0": "returns the total units of footprint generated by the company"
        }
      },
      "getIOT(address)": {
        "details": "Returns the address of the IOT dec",
        "params": {
          "company": "address of the company"
        },
        "returns": {
          "_0": "address of the IOT device approved by the company"
        }
      },
      "mint(uint256)": {
        "details": "calls the _mint function from standard ERC20",
        "params": {
          "amount": "specifies the amount of token to be newly minted"
        }
      },
      "name()": {
        "details": "returns the name of the token",
        "returns": {
          "_0": "name of the Token"
        }
      },
      "symbol()": {
        "details": "returns the Symbol of the token",
        "returns": {
          "_0": "symbol of the Token"
        }
      },
      "totalSupply()": {
        "details": "returns the total supply of the token",
        "returns": {
          "_0": "totalSupply of the Token"
        }
      },
      "transfer(address,uint256)": {
        "details": "Function to transfer a specified amount to another address",
        "params": {
          "amount": "amount of tokens to be transferred",
          "recipient": "address of the recipient"
        },
        "returns": {
          "_0": "boolean status of transfer; true if transfer succeeds and false if not"
        }
      },
      "transferFrom(address,address,uint256)": {
        "details": "facilitates transfer between two accounts other than the caller.",
        "params": {
          "amount": "amount of tokens to be sent",
          "recipient": "address of the recipient",
          "sender": "address of the sender"
        },
        "returns": {
          "_0": "boolean status of transfer; true if transfer succeeds and false if not"
        }
      }
    },
    "title": "Green Energy Token Contract",
    "version": 1
  },
  "userdoc": {
    "events": {
      "Buy(address,uint256,uint256)": {
        "notice": "To generate Event for Buy Action"
      },
      "Compensate(address,uint256,uint256)": {
        "notice": "To generate Event for Compensate Action"
      }
    },
    "kind": "user",
    "methods": {
      "addFootprint(address,uint256)": {
        "notice": "Function to add the footprint generated by company to the contract state"
      },
      "allowance(address,address)": {
        "notice": "Function to get the allowances of an approved acccount"
      },
      "approve(address,uint256)": {
        "notice": "Function to approve another account to transfer from the callers account"
      },
      "approveIot(address)": {
        "notice": "Approve an IOT device for the company"
      },
      "balanceOf(address)": {
        "notice": "Function to get balance of the Token holder"
      },
      "buy(uint256)": {
        "notice": "Facilitate the user to buy tokens"
      },
      "changeOwner(address)": {
        "notice": "Change the ownership of contract"
      },
      "compensate(uint256)": {
        "notice": "Facilitate the user to compensate for the generated footprints"
      },
      "constructor": {
        "notice": "Constructor of contract"
      },
      "decimals()": {
        "notice": "Function to get the decimals of the Token"
      },
      "getFootPrint(address)": {
        "notice": "Obtain the total footprint of the company"
      },
      "getIOT(address)": {
        "notice": "Retrieve the address of the IOT Device of a company"
      },
      "mint(uint256)": {
        "notice": "Create new tokens and store it in smart contract"
      },
      "name()": {
        "notice": "Function to get the name of the Token"
      },
      "symbol()": {
        "notice": "Function to get the Symbol of the Token"
      },
      "totalSupply()": {
        "notice": "Function to get total supply of the Token"
      },
      "transfer(address,uint256)": {
        "notice": "Function to transfer a specified amount to another address"
      },
      "transferFrom(address,address,uint256)": {
        "notice": "Function to send certain amount of tokens from one account to another account"
      }
    },
    "notice": "This token is used in tokenize the energy assest from green energy producer",
    "version": 1
  }
}